:020000040800F2
:1000000018070020B1010008850A00087D0A0008D1
:10001000810A00085D0900081714000800000000AC
:10002000000000000000000000000000110C0008AB
:100030006109000800000000F90A0008750E0008B8
:10004000CB010008CB010008CB010008CB01000860
:10005000CB010008CB010008CB010008CB01000850
:10006000CB010008CB010008CB010008CB01000840
:10007000CB010008CB010008CB010008CB01000830
:10008000CB010008CB010008CB010008CB01000820
:10009000CB010008CB010008CB010008CB01000810
:1000A000CB010008CB010008CB010008CB01000800
:1000B000CB010008CB010008CB010008CB010008F0
:1000C000CB010008CB010008CB010008CB010008E0
:1000D000CB01000875110008CB010008CB01000816
:1000E000CB010008CB010008CB01000800F002F8AA
:1000F00000F04EF80AA090E8000C82448344AAF174
:100100000107DA4501D100F043F8AFF2090EBAE871
:100110000F0013F0010F18BFFB1A43F0010318473B
:100120002818000048180000103A24BF78C878C189
:10013000FAD8520724BF30C830C144BF04680C60ED
:10014000704700000023002400250026103A28BF35
:1001500078C1FBD8520728BF30C148BF0B60704739
:10016000642900F0A180782900F00581632900F05E
:100170009782002070471FB500F094FB0400002018
:10018000002101F0ADFB401C60601FBD10B510BD2B
:1001900000F063FB1146FFF7EEFF01F089F900F074
:1001A00093FB03B4FFF7F2FF03BC01F03DF900003D
:1001B0000948804709480047FEE7FEE7FEE7FEE7FB
:1001C000FEE7FEE7FEE7FEE7FEE7FEE70448054937
:1001D000054A064B70470000790E0008ED00000844
:1001E0001801002018070020180300201803002021
:1001F0000FB4044910B503AA029800F05DFA10BCD0
:100200005DF814FB2400002070B504468569006881
:10021000C10601D5302600E02026C00707D070BDFA
:10022000D4E9012130469047206A401C20626D1EAF
:10023000F6D570BD70B5044685690078C00707D152
:1002400070BDD4E9012120209047206A401C206223
:100250006D1EF6D570BD70B50C460546012A05D059
:100260002878800600D5EA69002302E0012305E032
:100270005B1C934202D2E05C0028F9D1A869E61821
:10028000C01AA861286A184428622846FFF7BCFFF4
:1002900004E0D5E9012114F8010B9047B442F8D3EA
:1002A0002846FFF7C7FF70BD2DE9F0410646002440
:1002B00010687529314616A510D0AFF300800028CC
:1002C00002DA404213A507E031688A0701D512A57A
:1002D00002E0490704D511A5012401E0AFF3008035
:1002E00000210A2206F1240709E0B0FBF2FCB0FB72
:1002F000F2F302FB1C00303078541846491C0028E9
:10030000F3D123462A463046BDE8F04100F04CB90F
:10031000000000002D0000002B0000002000000065
:10032000F0B40D460188090502D5214C7C4402E059
:100330001F4C7C440E34002100F1240608E002F03A
:100340000F071209E75D42EA03721B097754491C43
:1003500052EA0307F3D102780023120704D5702D67
:1003600006D009B1022311342246F0BC00F01CB9BA
:1003700001231034F8E770B504460D462146106895
:10038000AFF30080024629462046BDE870400023B6
:10039000C6E7D21D22F00703D3E90023C0E70368B4
:1003A000126843F0200303600823C3610023B7E70A
:1003B000DC1500002DE9F05F894604464FF0000A85
:1003C000DFF874B1FB44C0F820A02046E1688847FC
:1003D000002874D0252806D0D4E901219047206A4E
:1003E000401C2062F1E700265F462046E16888470E
:1003F0002028054607DB312D05D2781910F8200C8E
:1004000008B10643F1E7B00701D526F00406C4F8A9
:100410001CA00027C4F818A02A2D09D0284600F0F7
:10042000FCFF38B304EB8708303DC8F8185019E0DA
:1004300059F8041B204604EB87029161E168884764
:10044000012F054618D1E069002820DA26F02006A1
:100450001DE0D8F8180000EB800005EB40003038B4
:10046000C8F818002046E1688847054600F0D5FF27
:100470000028EED1012F0AD02E2D08D12046E168A8
:1004800088477F1C0546022F46F02006C4DBA06982
:10049000002803DA404246F00106A061F00701D0CF
:1004A00026F010066C2D0BD0682D09D04C2D39D0BC
:1004B0006A2D35D0742D35D07A2D33D016E038E042
:1004C000E1682F4620468847B842054609D16C2F7F
:1004D00026D04FF48060E1680643204688470546F1
:1004E00004E06C2F1AD04FF4807006430DB3A5F1D1
:1004F0004100192802D8203546F400664A462946AC
:10050000204626604E46FFF72BFE80B101280BD017
:10051000F61D26F0070000F1080956E74020E4E741
:100520008020D8E70020D6E706F104094DE72846E9
:1005300052E7206ABDE8F09F6C15000070B50646D2
:1005400000F02EF80468054630460A22002100F02B
:10055000C5F82C6070BD4FF000020429C0F0128075
:1005600010F0030C00F0F480CCF1040CBCF1020F8D
:1005700018BF00F8012BA8BF20F8022BA1EB0C013B
:1005800000F0E6B85FEAC17C24BF00F8012B00F858
:10059000012B48BF00F8012B704770477047704728
:1005A00000487047B80000202DE9F0470D469946F5
:1005B0009246044600F124080168880604D5E069E3
:1005C00021F01001216000E00120A84201DD471B5D
:1005D00000E00027A1697A1902EB0900081AA0615E
:1005E0002078C00602D42046FFF70EFE002608E061
:1005F000D4E901211AF806009047206A401C761CB5
:1006000020624E45F4DB2078C0060AD52046FFF76D
:10061000FBFD06E0D4E9012130209047206A401C10
:100620002062381EA7F10107F4DC07E0D4E90121BC
:1006300018F805009047206A401C2062281EA5F18A
:100640000105F3DC2046FFF7F5FD2078000602D512
:100650000220BDE8F0870120FBE7000001694A1C89
:1006600002610878704700B58FB0CDE901310021F3
:10067000059105497944CDE9031011466846FFF715
:1006800099FE0FB000BD0000E5FFFFFF10B5436904
:1006900013B1AFF3008001E0FFF7DDFD012010BDD5
:1006A000127800F124010A7000224A700122EDE75D
:1006B00011684FF0FF32E9E7074B70B50D467B44F8
:1006C000FFF7D1FF0446284600F0C3F810B14FF001
:1006D000FF3070BD204670BDD30D00002DE9F047FE
:1006E00091460F4680460446002614F8015B2DB162
:1006F00000F058F80068405DC007F6D12B2D02D0FD
:100700002D2D18D0641E4A463946204600F052F876
:1007100027B13968A14201D1C7F800804FF0020427
:1007200071050BD54042002803DDFFF739FF046057
:10073000A007BDE8F08746F48066E4E70028F8DA11
:10074000FFF72EFF04606FF00040F2E74FF0000269
:1007500000B5134694469646203922BFA0E80C50B7
:10076000A0E80C50B1F12001BFF4F7AF090728BF92
:10077000A0E80C5048BF0CC05DF804EB890028BF0E
:1007800040F8042B08BF704748BF20F8022B11F037
:10079000804F18BF00F8012B7047000000487047D9
:1007A000B800002010B500F07DF8001D10BD00BF9E
:1007B000311100002DE9F05F824615468B46002777
:1007C0000AF10104B9460078302801D09DB113E048
:1007D00014F8010B0127782803D0582801D045B11F
:1007E0000AE00DB1102D07D1002714F8010B1025D8
:1007F00002E0082500E00A250026B0460EE005FBD1
:10080000080005FB06F101271FFA80F801EB1046EE
:10081000B6F5803F00D3B94614F8010B294600F025
:1008200045F80028EBDABBF1000F05D00FB1641ECC
:1008300000E05446CBF80040B9F1000F06D0FFF7B6
:10084000AFFE02210160C81EBDE8F09F48EA0640E5
:10085000FAE7007B00F0800070477546FFF79EFFC7
:10086000AE4605006946534620F00700854618B09D
:1008700020B5FFF7ABFCBDE820404FF000064FF07D
:1008800000074FF000084FF0000B21F00701AC46C5
:10089000ACE8C009ACE8C009ACE8C009ACE8C009E4
:1008A0008D46704700487047D80000203A2800D293
:1008B000303820F02002412A01D3A2F137008842CB
:1008C00001D34FF0FF30704710B50446AFF30080FE
:1008D0002046BDE81040FFF764BC00004FF0013C2B
:1008E00050F8042B51F8043B9A4221D1A2EB0C039F
:1008F000934313EACC1317D150F8042B51F8043B5F
:100900009A4215D1A2EB0C03934313EACC130BD1FB
:1009100050F8042B51F8043B9A4209D1A2EB0C0386
:10092000934313EACC13DBD04FF00000704700BFB5
:10093000D01A01BAB1FA81F101F0180122FA01F0DE
:10094000CB40C1F12001DBB2C0B2C01A2CFA01F3D6
:10095000D11A914311EAC311E6D1704700BFFEE7F7
:1009600070472DE9F04102460025002600200023B3
:100970000024002791F803C00CF00F0591F803C084
:100980000CF0100CBCF1000F03D091F802C04CEA3F
:10099000050591F800C0BCF1000F31D014680020AB
:1009A0002BE04FF0010C0CFA00F3B1F800C00CEA98
:1009B00003069E4220D183004FF00F0C0CFA03F780
:1009C000BC4305FA03FC4CEA040491F803C0BCF1F3
:1009D000280F06D14FF0010C0CFA00FCC2F814C02D
:1009E0000AE091F803C0BCF1480F05D14FF0010CAB
:1009F0000CFA00FCC2F810C0401C0828D1D31460C7
:100A0000B1F800C0BCF1FF0F34DD546800202EE0C7
:100A100000F1080C4FF0010808FA0CF3B1F800C01F
:100A20000CEA03069E4221D183004FF00F0C0CFA12
:100A300003F7BC4305FA03FC4CEA040491F803C035
:100A4000BCF1280F05D100F1080C08FA0CF8C2F827
:100A5000148091F803C0BCF1480F07D100F1080CD5
:100A60004FF0010808FA0CF8C2F81080401C082862
:100A7000CED35460BDE8F0814161704700BFFEE70E
:100A800000BFFEE77047000070B5002100230F2271
:100A9000C47804B3154C246804F4E064C4F5E0643D
:100AA000210AC1F10403CA40447804FA03F18478AE
:100AB0001440214309010E4C0678A155047804F036
:100AC0001F050124AC4005786D11AD0005F1E0254E
:100AD000C5F8004109E0047804F01F050124AC408A
:100AE000044D0678761145F8264070BD0CED00E007
:100AF00000E400E080E100E07047000029B1064A10
:100B0000D2690243044BDA6104E0034AD2698243AA
:100B1000014BDA61704700000010024029B1064A1B
:100B200092690243044B9A6104E0034A926982434A
:100B3000014B9A61704700000010024030B500215F
:100B40000022002400232D4D6D6805F00C0121B119
:100B5000042905D0082923D105E0294D056022E0AC
:100B6000274D05601FE0254D6D6805F47012234D7B
:100B70006D6805F48034022505EB92421CB9214DC5
:100B8000554305600BE01D4D6D6805F400351DB142
:100B90001C4D5543056002E0194D5543056002E0C8
:100BA000174D056000BF00BF144D6D6805F0F001E2
:100BB0000909154D6B5C0568DD4045600F4D6D689A
:100BC00005F4E061090A104D6B5C4568DD40856005
:100BD0000A4D6D6805F46051C90A0B4D6B5C4568A0
:100BE000DD40C560054D6D6805F44041890B074D3A
:100BF0006B5CC568B5FBF3F5056130BD00100240C4
:100C000000127A0000093D000000002010000020C2
:100C1000704710B500F002F810BD00000CB50020C0
:100C2000019000903348006840F4803031490860FA
:100C300000BF3048006800F4003000900198401C6C
:100C40000190009818B90198B0F5A06FF1D129482A
:100C5000006800F4003010B10120009001E0002095
:100C600000900098012843D12348006840F010000C
:100C7000214908600846006820F003000860084623
:100C8000006840F0020008601A484068194948604E
:100C90000846406848600846406840F48060486004
:100CA0000846406820F47C1048600846406840F4DC
:100CB000E81048600846006840F08070086000BF97
:100CC0000C48006800F000700028F9D0094840681E
:100CD00020F00300074948600846406840F00200E1
:100CE000486000BF0348406800F00C000828F9D1B4
:100CF0000CBD0000001002400020024001480088A6
:100D0000704700001600002001480088704700006E
:100D10001800002000B589B001210420FFF7FEFE75
:100D200001210846FFF7EAFE0320ADF82000182055
:100D30008DF8230003208DF8220008A92648FFF72C
:100D400010FE4720ADF814000020ADF8160044F660
:100D50001F60ADF818000020ADF81A008DF81C00D7
:100D600005A94FF0804000F089F96020ADF804003B
:100D70000120ADF806000020ADF80C005A2000F06C
:100D800055FBADF80A0001A94FF0804000F0BCF817
:100D90000821C80600F004F95A2000F047FBADF81E
:100DA0000A0001A94FF0804000F004F90821C806AC
:100DB00000F052F90121880700F08EF80121880720
:100DC00000F096F801210448FFF756FE0221024880
:100DD000FFF752FE09B000BD0008014070B505469E
:100DE0000C46B42D00DDB425B42C00DDB424284617
:100DF00000F01CFB064631464FF0804000F039F908
:100E0000204600F013FB064631464FF0804000F0CC
:100E100032F9024805800248048070BD16000020A7
:100E20001800002070B50446B42C00DDB424204620
:100E300000F0FCFA054629464FF0804000F019F911
:100E40000148048070BD00001600002070B5044603
:100E5000B42C00DDB424204600F0E8FA054629460B
:100E60004FF0804000F007F90148048070BD000099
:100E7000180000207047000010B51348006840F0CB
:100E800001001149086008464068104908400E49B1
:100E90004860084600680E4908400B49086008464B
:100EA000006820F4802008600846406820F4FE00B6
:100EB00048604FF41F008860FFF7ABFE4FF0006002
:100EC0000449086010BD0000001002400000FFF857
:100ED000FFFFF6FE08ED00E021B1028842F080023B
:100EE000028004E002884FF67F731A400280704748
:100EF00021B1028842F00102028004E002884FF62C
:100F0000FE731A400280704770B50024002200234F
:100F1000058C4FF6FE7635400584028C8388048B61
:100F20004FF68F752C40B51E2C400D882C43751E36
:100F30002A400D892A434D882A43144DA8420BD0DC
:100F4000134DA84208D0134DA84205D0124DA84217
:100F500002D0124DA84213D14FF6F7752A404D89A1
:100F60002A434FF6FB752A408D882A434FF6FF65CA
:100F70002B404FF6FF552B408D892B43CD892B43BA
:100F800083800483CD888586028470BD002C014057
:100F9000003401400040014000440140004801404D
:100FA0000A460021018B4FF6F77319401143018364
:100FB0007047000070B5002400220023058C4FF616
:100FC000EF7635400584028C8388048B48F6FF75E4
:100FD0002C404FF6FF452C400D884FF6FF7606EA71
:100FE00005252C434FF6DF752A400D8906EA0515C5
:100FF0002A434D8806EA05152A43154DA84202D01A
:10100000144DA8421DD14FF67F752A404D894FF6E9
:10101000FF7606EA05152A434FF6BF752A408D88EC
:1010200006EA05152A434FF6FF352B404FF2FF75B0
:101030002B408D8906EA85052B43CD8906EA850577
:101040002B4383800483CD880587028470BD000014
:10105000002C0140003401400A460021018B4FF270
:10106000FF7319404FF6FF7303EA0223194301830C
:101070007047818670470187704700000022028810
:101080001D4B98420ED01D4B98420BD0B0F1804FB3
:1010900008D01B4B984205D01A4B984202D01A4BED
:1010A000984204D14FF68F731A404B881A43174B5E
:1010B000984207D0164B984204D04FF6FF431A408F
:1010C000CB881A4302808B8883850B8803850A4B63
:1010D00098420BD0094B984208D00E4B984205D04D
:1010E0000D4B984202D00D4B984201D10B7A0386EA
:1010F0000123838270470000002C0140003401402E
:101100000004004000080040000C004000100040B7
:1011100000140040004001400044014000480140EC
:10112000024908880021014A1180704720000020F0
:1011300001460D4800880D4B1B88984201D10020C4
:101140007047094B1B88581CC31700EB5363DB1116
:10115000A0EBC3139AB20648034B1B88C05C08700F
:10116000014802800120EBE71E0000201C00002047
:101170003800002070B540F22551124800F08AF87E
:10118000F0B1104800F042F9C5B20F490988481C77
:10119000C11700EB5161C911A0EBC1118CB20B4812
:1011A0000088844206D00A48074909884554064801
:1011B000048004E007480088401C0649088000BFFE
:1011C00070BD0000003801401C0000201E000020FF
:1011D000380000202000002000B587B0012144F233
:1011E0000400FFF79BFC4FF40070ADF818000320DB
:1011F0008DF81A0018208DF81B0006A91D48FFF76E
:10120000B0FB4FF48060ADF8180004208DF81B008F
:1012100006A91848FFF7A5FB25208DF80400032038
:101220008DF805008DF8060001208DF8070001A853
:10123000FFF72AFC4FF4E13002900020ADF80C00DB
:10124000ADF80E00ADF81000ADF814000C20ADF8AC
:10125000120002A9084800F06DF8012240F2255161
:10126000054800F041F80121034800F007F807B0F5
:1012700000BD0000000801400038014021B1828912
:1012800042F40052828104E082894DF6FF731A40D5
:101290008281704770B5024600240023002500209B
:1012A00040F66A16B14200D100BFC1F3421501F009
:1012B0001F03012606FA03F3012D02D1968933405C
:1012C00006E0022D02D1168A334001E0968A3340AF
:1012D0000C12012606FA04F41688344013B10CB13E
:1012E000012000E0002070BDF0B503460024002678
:1012F0000025002040F66A17B94200D100BF184609
:10130000C1F3421401F01F06012707FA06F5012C6C
:1013100001D10C3004E0022C01D1103000E0143077
:101320001AB107682F43076002E00768AF43076000
:10133000F0BD00002DE9F04786B005460E460024BA
:10134000A24600BFA1460027B08900B100BF2F46CA
:101350002C8A4CF6FF700440F08804432C82AC8940
:101360004EF6F3100440B088318908437189084370
:101370000443AC81AC8A4FF6FF400440B08904437B
:10138000AC8201A8FFF7DAFB1F48874202D1DDF8E3
:1013900010A001E0DDF80CA0A88900F4004040B1E5
:1013A0000AEBCA0000EB0A1031684900B0FBF1F803
:1013B00007E00AEBCA0000EB0A1031688900B0FBB5
:1013C000F1F86420B8FBF0F004012009642101FB6E
:1013D0001089A88900F4004040B1322000EBC90018
:1013E000B0FBF1F000F00700044308E0322000EB0E
:1013F00009106421B0FBF1F000F00F0004432C81D0
:1014000006B0BDE8F087000000380140014688883A
:10141000C0F30800704700BFFEE730380A2801D249
:10142000012070470020704700BF70470146B42973
:1014300000DDB4214FF4FA604843B422B0FBF2F06F
:1014400000F5FA7080B27047704700B5034603E0BC
:101450004FF47A7000F006F8181EA3F101018BB268
:10146000F6D100BD00EBC001C9004FF0E022516190
:10147000002191610521116100BF4FF0E021096950
:1014800001F480310029F8D004214FF0E0221161ED
:101490007047000000BF054A128802F04002002A8F
:1014A000F9D0C2B2014B1B1D1A80704700380140B1
:1014B00008B5FFF791FEFFF72DFCFFF7C5FF5A2196
:1014C0000846FFF78BFC31A0FEF792FE39A0FEF72D
:1014D0008FFE40A0FEF78CFE45A0FEF789FE4BA0D4
:1014E000FEF786FE4FA0FEF783FE56A0FEF780FEB5
:1014F00010215E48FFF72FF846E033E09DF80050DA
:101500000A2D01D00D2D15D159480078002828DD6D
:1015100000205649564A1278885455480178534855
:1015200000F0C4F800205249087010214F48FFF71E
:1015300012F816E04E4800780F2808DA4C48017877
:101540000078401C4A4A10704848455409E049A0B8
:10155000FEF74EFE00204649087010214348FEF772
:10156000FAFF00BF6846FFF7E3FD0028C6D1FFF78A
:10157000D7FD0446002C03DD214645A0FEF738FECA
:101580000220FFF762FF00BFB7E700000D0A3D3DF4
:101590003D3D3D3D3D3D3D3D3D3D3D3D3D3D3D3D7B
:1015A0003D3D3D3D3D3D3D3D3D3D3D3D3D3D0D0ACE
:1015B00000000000202050616E2F54696C742032AE
:1015C0002D536572766F20436F6E74726F6C6C650D
:1015D000720D0A00202050414E20202D3E20504107
:1015E00030202854494D325F434831290D0A00000C
:1015F000202054494C54202D3E2050413120285465
:10160000494D325F434832290D0A000020205541E0
:101610005254202D3E203131353230302C384E316D
:101620000D0A0000202053656E643A2050363020A9
:101630002054343520205220202B20456E746572B2
:101640000D0A00003D3D3D3D3D3D3D3D3D3D3D3DA7
:101650003D3D3D3D3D3D3D3D3D3D3D3D3D3D3D3DBA
:101660003D3D3D3D0D0A0D0A000000002800002010
:10167000140000205B5741524E5D2062756666651E
:1016800072206F766572666C6F770D0A000000003D
:101690005B5741524E5D205258206F766572666CE2
:1016A0006F77207825640D0A000000002DE9FC5FAB
:1016B00005460F460FB9BDE8FC9F57A0FEF798FD01
:1016C0004FF0000818E015F808000D2803D155A0C8
:1016D000FEF78EFD0CE015F808000A2803D152A091
:1016E000FEF786FD04E015F8081050A0FEF780FD17
:1016F00008F1010000F0FF08B845E4DB39464CA0D2
:10170000FEF776FD002401E0601CC4B2BC4208DA9A
:10171000285D2028F8D0285D0D28F5D0285D0A28FE
:10172000F2D0BC4200DBC6E72046611CCCB22E5C86
:1017300001E0601CC4B2BC4202DA285D2028F8D067
:10174000522E01D0722E07D15A210846FFF746FBD0
:101750003BA0FEF74DFDAEE7502E05D0702E03D016
:10176000542E01D0742E4FD1BC424DDA002000908F
:101770000190804609E02046611CCCB22A5C4046BC
:10178000411C01F0FF080DF80020BC4208DAB8F156
:10179000040F05DA285D302802DB285D3928EADDF0
:1017A000B8F1000F04D131462DA0FEF721FD82E7EC
:1017B0006846FEF7C3FE1FFA80F94FF4FA6009FB92
:1017C00000F0B421B0FBF1F000F5FA701FFA80FAD6
:1017D000502E01D0702E0BD14846FFF723FBFFF7A8
:1017E0008DFA83465246594625A0FEF701FD0AE0D0
:1017F0004846FFF72BFBFFF787FA834652465946C8
:1018000026A0FEF7F5FC04E0324631462BA0FEF799
:10181000EFFC00BF4FE700005B4442475D20676F6D
:10182000742022005C7200005C6E000025630000E2
:101830002220286C656E3D2564290D0A00000000F9
:101840005B4F4B5D205265736574202D3E205041E7
:101850004E3D39302054494C543D39300D0A00007A
:101860005B4552525D206E6F206E756D6265722011
:10187000616674657220272563270D0A0000000049
:101880005B4F4B5D2050414E3D2564202870756CA8
:1018900073653D2564207573290D0A005B4F4B5D10
:1018A0002054494C543D2564202870756C73653D67
:1018B0002564207573290D0A000000005B45525213
:1018C0005D20756E6B6E6F776E20636D643A2027B6
:1018D0002563272028307825303258290D0A00004A
:1018E00010B500290AD00878002807D005487844A8
:1018F000FEF7F4FF002801D0002010BD0248784414
:1019000010BD00007A000000720000003031323358
:101910003435363738394142434445464030580023
:101920003031323334353637383961626364656655
:1019300040307800040000080000000000000002B1
:101940000001000010000000781A000800000020CC
:101950002800000028010008A01A00082800002024
:10196000F0060000440100081001000043000000E0
:10197000F8FFFFFF004040404040404040404141B0
:101980004141414040404040404040404040404054
:1019900040404040400502020202020202020202EE
:1019A00002020202022020202020202020202002EB
:1019B000020202020202909090909090101010107B
:1019C0001010101010101010101010101010101017
:1019D00002020202020288888888888808080808AB
:1019E0000808080808080808080808080808080877
:1019F000020202024000000000000000000000009F
:101A000000000000000000000000000000000000D6
:101A100000000000000000000000000000000000C6
:101A200000000000000000000000000000000000B6
:101A300000000000000000000000000000000000A6
:101A40000000000000000000000000000000000096
:101A50000000000000000000000000000000000086
:101A60000000000000000000000000000000000076
:101A7000000000000000000000000000010203045C
:101A800001020304060708090204060800005A00C0
:101A90005A000000000000000000000000000000EC
:04000005080001B13D
:00000001FF
